{
  "_format": "hh-sol-artifact-1",
  "contractName": "Domains",
  "sourceName": "contracts/Domains.sol",
  "abi": [
    {
      "inputs": [
        {
          "internalType": "string",
          "name": "_tld",
          "type": "string"
        }
      ],
      "stateMutability": "payable",
      "type": "constructor"
    },
    {
      "inputs": [],
      "name": "AlreadyRegistered",
      "type": "error"
    },
    {
      "inputs": [
        {
          "internalType": "string",
          "name": "name",
          "type": "string"
        }
      ],
      "name": "InvalidName",
      "type": "error"
    },
    {
      "inputs": [],
      "name": "Unauthorized",
      "type": "error"
    },
    {
      "anonymous": false,
      "inputs": [
        {
          "indexed": true,
          "internalType": "address",
          "name": "owner",
          "type": "address"
        },
        {
          "indexed": true,
          "internalType": "address",
          "name": "approved",
          "type": "address"
        },
        {
          "indexed": true,
          "internalType": "uint256",
          "name": "tokenId",
          "type": "uint256"
        }
      ],
      "name": "Approval",
      "type": "event"
    },
    {
      "anonymous": false,
      "inputs": [
        {
          "indexed": true,
          "internalType": "address",
          "name": "owner",
          "type": "address"
        },
        {
          "indexed": true,
          "internalType": "address",
          "name": "operator",
          "type": "address"
        },
        {
          "indexed": false,
          "internalType": "bool",
          "name": "approved",
          "type": "bool"
        }
      ],
      "name": "ApprovalForAll",
      "type": "event"
    },
    {
      "anonymous": false,
      "inputs": [
        {
          "indexed": true,
          "internalType": "address",
          "name": "from",
          "type": "address"
        },
        {
          "indexed": true,
          "internalType": "address",
          "name": "to",
          "type": "address"
        },
        {
          "indexed": true,
          "internalType": "uint256",
          "name": "tokenId",
          "type": "uint256"
        }
      ],
      "name": "Transfer",
      "type": "event"
    },
    {
      "inputs": [
        {
          "internalType": "address",
          "name": "to",
          "type": "address"
        },
        {
          "internalType": "uint256",
          "name": "tokenId",
          "type": "uint256"
        }
      ],
      "name": "approve",
      "outputs": [],
      "stateMutability": "nonpayable",
      "type": "function"
    },
    {
      "inputs": [
        {
          "internalType": "address",
          "name": "owner",
          "type": "address"
        }
      ],
      "name": "balanceOf",
      "outputs": [
        {
          "internalType": "uint256",
          "name": "",
          "type": "uint256"
        }
      ],
      "stateMutability": "view",
      "type": "function"
    },
    {
      "inputs": [
        {
          "internalType": "string",
          "name": "",
          "type": "string"
        }
      ],
      "name": "domains",
      "outputs": [
        {
          "internalType": "address",
          "name": "",
          "type": "address"
        }
      ],
      "stateMutability": "view",
      "type": "function"
    },
    {
      "inputs": [
        {
          "internalType": "string",
          "name": "name",
          "type": "string"
        }
      ],
      "name": "getAddress",
      "outputs": [
        {
          "internalType": "address",
          "name": "",
          "type": "address"
        }
      ],
      "stateMutability": "view",
      "type": "function"
    },
    {
      "inputs": [],
      "name": "getAllNames",
      "outputs": [
        {
          "internalType": "string[]",
          "name": "",
          "type": "string[]"
        }
      ],
      "stateMutability": "view",
      "type": "function"
    },
    {
      "inputs": [
        {
          "internalType": "uint256",
          "name": "tokenId",
          "type": "uint256"
        }
      ],
      "name": "getApproved",
      "outputs": [
        {
          "internalType": "address",
          "name": "",
          "type": "address"
        }
      ],
      "stateMutability": "view",
      "type": "function"
    },
    {
      "inputs": [
        {
          "internalType": "string",
          "name": "addr",
          "type": "string"
        }
      ],
      "name": "getRecord",
      "outputs": [
        {
          "internalType": "string",
          "name": "",
          "type": "string"
        }
      ],
      "stateMutability": "view",
      "type": "function"
    },
    {
      "inputs": [
        {
          "internalType": "address",
          "name": "addr",
          "type": "address"
        }
      ],
      "name": "getTransactions",
      "outputs": [
        {
          "components": [
            {
              "internalType": "address",
              "name": "from",
              "type": "address"
            },
            {
              "internalType": "string",
              "name": "txn",
              "type": "string"
            },
            {
              "internalType": "string",
              "name": "matic",
              "type": "string"
            },
            {
              "internalType": "string",
              "name": "message",
              "type": "string"
            },
            {
              "internalType": "uint256",
              "name": "timestamp",
              "type": "uint256"
            }
          ],
          "internalType": "struct Domains.Transaction[]",
          "name": "",
          "type": "tuple[]"
        }
      ],
      "stateMutability": "view",
      "type": "function"
    },
    {
      "inputs": [
        {
          "internalType": "address",
          "name": "owner",
          "type": "address"
        },
        {
          "internalType": "address",
          "name": "operator",
          "type": "address"
        }
      ],
      "name": "isApprovedForAll",
      "outputs": [
        {
          "internalType": "bool",
          "name": "",
          "type": "bool"
        }
      ],
      "stateMutability": "view",
      "type": "function"
    },
    {
      "inputs": [],
      "name": "isOwner",
      "outputs": [
        {
          "internalType": "bool",
          "name": "",
          "type": "bool"
        }
      ],
      "stateMutability": "view",
      "type": "function"
    },
    {
      "inputs": [],
      "name": "name",
      "outputs": [
        {
          "internalType": "string",
          "name": "",
          "type": "string"
        }
      ],
      "stateMutability": "view",
      "type": "function"
    },
    {
      "inputs": [
        {
          "internalType": "uint256",
          "name": "",
          "type": "uint256"
        }
      ],
      "name": "names",
      "outputs": [
        {
          "internalType": "string",
          "name": "",
          "type": "string"
        }
      ],
      "stateMutability": "view",
      "type": "function"
    },
    {
      "inputs": [],
      "name": "owner",
      "outputs": [
        {
          "internalType": "address payable",
          "name": "",
          "type": "address"
        }
      ],
      "stateMutability": "view",
      "type": "function"
    },
    {
      "inputs": [
        {
          "internalType": "uint256",
          "name": "tokenId",
          "type": "uint256"
        }
      ],
      "name": "ownerOf",
      "outputs": [
        {
          "internalType": "address",
          "name": "",
          "type": "address"
        }
      ],
      "stateMutability": "view",
      "type": "function"
    },
    {
      "inputs": [
        {
          "internalType": "string",
          "name": "name",
          "type": "string"
        }
      ],
      "name": "price",
      "outputs": [
        {
          "internalType": "uint256",
          "name": "",
          "type": "uint256"
        }
      ],
      "stateMutability": "pure",
      "type": "function"
    },
    {
      "inputs": [
        {
          "internalType": "string",
          "name": "",
          "type": "string"
        }
      ],
      "name": "records",
      "outputs": [
        {
          "internalType": "string",
          "name": "",
          "type": "string"
        }
      ],
      "stateMutability": "view",
      "type": "function"
    },
    {
      "inputs": [
        {
          "internalType": "string",
          "name": "name",
          "type": "string"
        }
      ],
      "name": "register",
      "outputs": [],
      "stateMutability": "payable",
      "type": "function"
    },
    {
      "inputs": [
        {
          "internalType": "address",
          "name": "from",
          "type": "address"
        },
        {
          "internalType": "address",
          "name": "to",
          "type": "address"
        },
        {
          "internalType": "uint256",
          "name": "tokenId",
          "type": "uint256"
        }
      ],
      "name": "safeTransferFrom",
      "outputs": [],
      "stateMutability": "nonpayable",
      "type": "function"
    },
    {
      "inputs": [
        {
          "internalType": "address",
          "name": "from",
          "type": "address"
        },
        {
          "internalType": "address",
          "name": "to",
          "type": "address"
        },
        {
          "internalType": "uint256",
          "name": "tokenId",
          "type": "uint256"
        },
        {
          "internalType": "bytes",
          "name": "data",
          "type": "bytes"
        }
      ],
      "name": "safeTransferFrom",
      "outputs": [],
      "stateMutability": "nonpayable",
      "type": "function"
    },
    {
      "inputs": [
        {
          "internalType": "address",
          "name": "operator",
          "type": "address"
        },
        {
          "internalType": "bool",
          "name": "approved",
          "type": "bool"
        }
      ],
      "name": "setApprovalForAll",
      "outputs": [],
      "stateMutability": "nonpayable",
      "type": "function"
    },
    {
      "inputs": [
        {
          "internalType": "string",
          "name": "addr",
          "type": "string"
        },
        {
          "internalType": "string",
          "name": "record",
          "type": "string"
        }
      ],
      "name": "setRecord",
      "outputs": [],
      "stateMutability": "nonpayable",
      "type": "function"
    },
    {
      "inputs": [
        {
          "internalType": "address",
          "name": "to",
          "type": "address"
        },
        {
          "internalType": "string",
          "name": "txn",
          "type": "string"
        },
        {
          "internalType": "string",
          "name": "matic",
          "type": "string"
        },
        {
          "internalType": "string",
          "name": "message",
          "type": "string"
        }
      ],
      "name": "setTransaction",
      "outputs": [],
      "stateMutability": "nonpayable",
      "type": "function"
    },
    {
      "inputs": [
        {
          "internalType": "bytes4",
          "name": "interfaceId",
          "type": "bytes4"
        }
      ],
      "name": "supportsInterface",
      "outputs": [
        {
          "internalType": "bool",
          "name": "",
          "type": "bool"
        }
      ],
      "stateMutability": "view",
      "type": "function"
    },
    {
      "inputs": [],
      "name": "symbol",
      "outputs": [
        {
          "internalType": "string",
          "name": "",
          "type": "string"
        }
      ],
      "stateMutability": "view",
      "type": "function"
    },
    {
      "inputs": [],
      "name": "tld",
      "outputs": [
        {
          "internalType": "string",
          "name": "",
          "type": "string"
        }
      ],
      "stateMutability": "view",
      "type": "function"
    },
    {
      "inputs": [
        {
          "internalType": "uint256",
          "name": "tokenId",
          "type": "uint256"
        }
      ],
      "name": "tokenURI",
      "outputs": [
        {
          "internalType": "string",
          "name": "",
          "type": "string"
        }
      ],
      "stateMutability": "view",
      "type": "function"
    },
    {
      "inputs": [
        {
          "internalType": "address",
          "name": "",
          "type": "address"
        },
        {
          "internalType": "uint256",
          "name": "",
          "type": "uint256"
        }
      ],
      "name": "transactions",
      "outputs": [
        {
          "internalType": "address",
          "name": "from",
          "type": "address"
        },
        {
          "internalType": "string",
          "name": "txn",
          "type": "string"
        },
        {
          "internalType": "string",
          "name": "matic",
          "type": "string"
        },
        {
          "internalType": "string",
          "name": "message",
          "type": "string"
        },
        {
          "internalType": "uint256",
          "name": "timestamp",
          "type": "uint256"
        }
      ],
      "stateMutability": "view",
      "type": "function"
    },
    {
      "inputs": [
        {
          "internalType": "address",
          "name": "from",
          "type": "address"
        },
        {
          "internalType": "address",
          "name": "to",
          "type": "address"
        },
        {
          "internalType": "uint256",
          "name": "tokenId",
          "type": "uint256"
        }
      ],
      "name": "transferFrom",
      "outputs": [],
      "stateMutability": "nonpayable",
      "type": "function"
    },
    {
      "inputs": [
        {
          "internalType": "string",
          "name": "name",
          "type": "string"
        }
      ],
      "name": "valid",
      "outputs": [
        {
          "internalType": "bool",
          "name": "",
          "type": "bool"
        }
      ],
      "stateMutability": "pure",
      "type": "function"
    },
    {
      "inputs": [],
      "name": "withdraw",
      "outputs": [],
      "stateMutability": "nonpayable",
      "type": "function"
    }
  ],
  "bytecode": "0x6080604052604051806108a0016040528061086b81526020016200615861086b9139600990816200003191906200051f565b506040518060400160405280600d81526020017f3c2f746578743e3c2f7376673e00000000000000000000000000000000000000815250600a90816200007891906200051f565b50604051620069c3380380620069c383398181016040528101906200009e91906200076a565b6040518060400160405280601381526020017f446f6d61696e204e616d652053657276696365000000000000000000000000008152506040518060400160405280600381526020017f444e53000000000000000000000000000000000000000000000000000000000081525081600090816200011b91906200051f565b5080600190816200012d91906200051f565b50505033600e60006101000a81548173ffffffffffffffffffffffffffffffffffffffff021916908373ffffffffffffffffffffffffffffffffffffffff16021790555080600890816200018291906200051f565b50620001cf6040518060400160405280601881526020017f2573206e616d652073657276696365206465706c6f796564000000000000000081525082620001d660201b620022a31760201c565b5062000848565b620002788282604051602401620001ef9291906200080d565b6040516020818303038152906040527f4b5c4277000000000000000000000000000000000000000000000000000000007bffffffffffffffffffffffffffffffffffffffffffffffffffffffff19166020820180517bffffffffffffffffffffffffffffffffffffffffffffffffffffffff83818316178352505050506200027c60201b60201c565b5050565b60008151905060006a636f6e736f6c652e6c6f679050602083016000808483855afa5050505050565b600081519050919050565b7f4e487b7100000000000000000000000000000000000000000000000000000000600052604160045260246000fd5b7f4e487b7100000000000000000000000000000000000000000000000000000000600052602260045260246000fd5b600060028204905060018216806200032757607f821691505b6020821081036200033d576200033c620002df565b5b50919050565b60008190508160005260206000209050919050565b60006020601f8301049050919050565b600082821b905092915050565b600060088302620003a77fffffffffffffffffffffffffffffffffffffffffffffffffffffffffffffffff8262000368565b620003b3868362000368565b95508019841693508086168417925050509392505050565b6000819050919050565b6000819050919050565b600062000400620003fa620003f484620003cb565b620003d5565b620003cb565b9050919050565b6000819050919050565b6200041c83620003df565b620004346200042b8262000407565b84845462000375565b825550505050565b600090565b6200044b6200043c565b6200045881848462000411565b505050565b5b8181101562000480576200047460008262000441565b6001810190506200045e565b5050565b601f821115620004cf57620004998162000343565b620004a48462000358565b81016020851015620004b4578190505b620004cc620004c38562000358565b8301826200045d565b50505b505050565b600082821c905092915050565b6000620004f460001984600802620004d4565b1980831691505092915050565b60006200050f8383620004e1565b9150826002028217905092915050565b6200052a82620002a5565b67ffffffffffffffff811115620005465762000545620002b0565b5b6200055282546200030e565b6200055f82828562000484565b600060209050601f83116001811462000597576000841562000582578287015190505b6200058e858262000501565b865550620005fe565b601f198416620005a78662000343565b60005b82811015620005d157848901518255600182019150602085019450602081019050620005aa565b86831015620005f15784890151620005ed601f891682620004e1565b8355505b6001600288020188555050505b505050505050565b6000604051905090565b600080fd5b600080fd5b600080fd5b600080fd5b6000601f19601f8301169050919050565b620006408262000624565b810181811067ffffffffffffffff82111715620006625762000661620002b0565b5b80604052505050565b60006200067762000606565b905062000685828262000635565b919050565b600067ffffffffffffffff821115620006a857620006a7620002b0565b5b620006b38262000624565b9050602081019050919050565b60005b83811015620006e0578082015181840152602081019050620006c3565b60008484015250505050565b600062000703620006fd846200068a565b6200066b565b9050828152602081018484840111156200072257620007216200061f565b5b6200072f848285620006c0565b509392505050565b600082601f8301126200074f576200074e6200061a565b5b815162000761848260208601620006ec565b91505092915050565b60006020828403121562000783576200078262000610565b5b600082015167ffffffffffffffff811115620007a457620007a362000615565b5b620007b28482850162000737565b91505092915050565b600082825260208201905092915050565b6000620007d982620002a5565b620007e58185620007bb565b9350620007f7818560208601620006c0565b620008028162000624565b840191505092915050565b60006040820190508181036000830152620008298185620007cc565b905081810360208301526200083f8184620007cc565b90509392505050565b61590080620008586000396000f3fe6080604052600436106101cd5760003560e01c806370a08231116100f7578063b88d4fde11610095578063e985e9c511610064578063e985e9c5146106fc578063f2c298be14610739578063fb825e5f14610755578063fe2c619814610780576101cd565b8063b88d4fde14610630578063bf40fac114610659578063c1880a9814610696578063c87b56dd146106bf576101cd565b80638f32d59b116100d15780638f32d59b1461057457806395d89b411461059f5780639791c097146105ca578063a22cb46514610607576101cd565b806370a08231146104e357806389095966146105205780638da5cb5b14610549576101cd565b806323b872dd1161016f57806342842e0e1161013e57806342842e0e146104035780634622ab031461042c578063541e771d146104695780636352211e146104a6576101cd565b806323b872dd1461035b57806326449235146103845780632d551432146103c15780633ccfd60b146103ec576101cd565b8063095ea7b3116101ab578063095ea7b3146102775780630f8cda20146102a057806311dd8845146102dd578063145381281461031a576101cd565b806301ffc9a7146101d257806306fdde031461020f578063081812fc1461023a575b600080fd5b3480156101de57600080fd5b506101f960048036038101906101f49190613949565b6107bd565b6040516102069190613991565b60405180910390f35b34801561021b57600080fd5b5061022461089f565b6040516102319190613a3c565b60405180910390f35b34801561024657600080fd5b50610261600480360381019061025c9190613a94565b610931565b60405161026e9190613b02565b60405180910390f35b34801561028357600080fd5b5061029e60048036038101906102999190613b49565b610977565b005b3480156102ac57600080fd5b506102c760048036038101906102c29190613b89565b610a8e565b6040516102d49190613d64565b60405180910390f35b3480156102e957600080fd5b5061030460048036038101906102ff9190613deb565b610d42565b6040516103119190613a3c565b60405180910390f35b34801561032657600080fd5b50610341600480360381019061033c9190613b49565b610df5565b604051610352959493929190613e47565b60405180910390f35b34801561036757600080fd5b50610382600480360381019061037d9190613eaf565b611000565b005b34801561039057600080fd5b506103ab60048036038101906103a69190614032565b611060565b6040516103b89190613b02565b60405180910390f35b3480156103cd57600080fd5b506103d66110a9565b6040516103e39190613a3c565b60405180910390f35b3480156103f857600080fd5b50610401611137565b005b34801561040f57600080fd5b5061042a60048036038101906104259190613eaf565b6111fd565b005b34801561043857600080fd5b50610453600480360381019061044e9190613a94565b61121d565b6040516104609190613a3c565b60405180910390f35b34801561047557600080fd5b50610490600480360381019061048b9190614032565b6112bd565b60405161049d9190613a3c565b60405180910390f35b3480156104b257600080fd5b506104cd60048036038101906104c89190613a94565b611373565b6040516104da9190613b02565b60405180910390f35b3480156104ef57600080fd5b5061050a60048036038101906105059190613b89565b6113f9565b604051610517919061407b565b60405180910390f35b34801561052c57600080fd5b5061054760048036038101906105429190614096565b6114b0565b005b34801561055557600080fd5b5061055e611704565b60405161056b9190614180565b60405180910390f35b34801561058057600080fd5b5061058961172a565b6040516105969190613991565b60405180910390f35b3480156105ab57600080fd5b506105b4611782565b6040516105c19190613a3c565b60405180910390f35b3480156105d657600080fd5b506105f160048036038101906105ec9190613deb565b611814565b6040516105fe9190613991565b60405180910390f35b34801561061357600080fd5b5061062e600480360381019061062991906141c7565b6118c8565b005b34801561063c57600080fd5b50610657600480360381019061065291906142a8565b6118de565b005b34801561066557600080fd5b50610680600480360381019061067b9190613deb565b611940565b60405161068d9190613b02565b60405180910390f35b3480156106a257600080fd5b506106bd60048036038101906106b8919061432b565b61198b565b005b3480156106cb57600080fd5b506106e660048036038101906106e19190613a94565b611a00565b6040516106f39190613a3c565b60405180910390f35b34801561070857600080fd5b50610723600480360381019061071e91906143ac565b611b12565b6040516107309190613991565b60405180910390f35b610753600480360381019061074e9190613deb565b611ba6565b005b34801561076157600080fd5b5061076a612024565b60405161077791906144ae565b60405180910390f35b34801561078c57600080fd5b506107a760048036038101906107a29190613deb565b612202565b6040516107b4919061407b565b60405180910390f35b60007f80ac58cd000000000000000000000000000000000000000000000000000000007bffffffffffffffffffffffffffffffffffffffffffffffffffffffff1916827bffffffffffffffffffffffffffffffffffffffffffffffffffffffff1916148061088857507f5b5e139f000000000000000000000000000000000000000000000000000000007bffffffffffffffffffffffffffffffffffffffffffffffffffffffff1916827bffffffffffffffffffffffffffffffffffffffffffffffffffffffff1916145b8061089857506108978261233f565b5b9050919050565b6060600080546108ae906144ff565b80601f01602080910402602001604051908101604052809291908181526020018280546108da906144ff565b80156109275780601f106108fc57610100808354040283529160200191610927565b820191906000526020600020905b81548152906001019060200180831161090a57829003601f168201915b5050505050905090565b600061093c826123a9565b6004600083815260200190815260200160002060009054906101000a900473ffffffffffffffffffffffffffffffffffffffff169050919050565b600061098282611373565b90508073ffffffffffffffffffffffffffffffffffffffff168373ffffffffffffffffffffffffffffffffffffffff16036109f2576040517f08c379a00000000000000000000000000000000000000000000000000000000081526004016109e9906145a2565b60405180910390fd5b8073ffffffffffffffffffffffffffffffffffffffff16610a116123f4565b73ffffffffffffffffffffffffffffffffffffffff161480610a405750610a3f81610a3a6123f4565b611b12565b5b610a7f576040517f08c379a0000000000000000000000000000000000000000000000000000000008152600401610a7690614634565b60405180910390fd5b610a8983836123fc565b505050565b6060600d60008373ffffffffffffffffffffffffffffffffffffffff1673ffffffffffffffffffffffffffffffffffffffff168152602001908152602001600020805480602002602001604051908101604052809291908181526020016000905b82821015610d3757838290600052602060002090600502016040518060a00160405290816000820160009054906101000a900473ffffffffffffffffffffffffffffffffffffffff1673ffffffffffffffffffffffffffffffffffffffff1673ffffffffffffffffffffffffffffffffffffffff168152602001600182018054610b78906144ff565b80601f0160208091040260200160405190810160405280929190818152602001828054610ba4906144ff565b8015610bf15780601f10610bc657610100808354040283529160200191610bf1565b820191906000526020600020905b815481529060010190602001808311610bd457829003601f168201915b50505050508152602001600282018054610c0a906144ff565b80601f0160208091040260200160405190810160405280929190818152602001828054610c36906144ff565b8015610c835780601f10610c5857610100808354040283529160200191610c83565b820191906000526020600020905b815481529060010190602001808311610c6657829003601f168201915b50505050508152602001600382018054610c9c906144ff565b80601f0160208091040260200160405190810160405280929190818152602001828054610cc8906144ff565b8015610d155780601f10610cea57610100808354040283529160200191610d15565b820191906000526020600020905b815481529060010190602001808311610cf857829003601f168201915b5050505050815260200160048201548152505081526020019060010190610aef565b505050509050919050565b6060600c8383604051610d56929190614684565b90815260200160405180910390208054610d6f906144ff565b80601f0160208091040260200160405190810160405280929190818152602001828054610d9b906144ff565b8015610de85780601f10610dbd57610100808354040283529160200191610de8565b820191906000526020600020905b815481529060010190602001808311610dcb57829003601f168201915b5050505050905092915050565b600d6020528160005260406000208181548110610e1157600080fd5b9060005260206000209060050201600091509150508060000160009054906101000a900473ffffffffffffffffffffffffffffffffffffffff1690806001018054610e5b906144ff565b80601f0160208091040260200160405190810160405280929190818152602001828054610e87906144ff565b8015610ed45780601f10610ea957610100808354040283529160200191610ed4565b820191906000526020600020905b815481529060010190602001808311610eb757829003601f168201915b505050505090806002018054610ee9906144ff565b80601f0160208091040260200160405190810160405280929190818152602001828054610f15906144ff565b8015610f625780601f10610f3757610100808354040283529160200191610f62565b820191906000526020600020905b815481529060010190602001808311610f4557829003601f168201915b505050505090806003018054610f77906144ff565b80601f0160208091040260200160405190810160405280929190818152602001828054610fa3906144ff565b8015610ff05780601f10610fc557610100808354040283529160200191610ff0565b820191906000526020600020905b815481529060010190602001808311610fd357829003601f168201915b5050505050908060040154905085565b61101161100b6123f4565b826124b5565b611050576040517f08c379a00000000000000000000000000000000000000000000000000000000081526004016110479061470f565b60405180910390fd5b61105b83838361254a565b505050565b600b818051602081018201805184825260208301602085012081835280955050505050506000915054906101000a900473ffffffffffffffffffffffffffffffffffffffff1681565b600880546110b6906144ff565b80601f01602080910402602001604051908101604052809291908181526020018280546110e2906144ff565b801561112f5780601f106111045761010080835404028352916020019161112f565b820191906000526020600020905b81548152906001019060200180831161111257829003601f168201915b505050505081565b61113f61172a565b61114857600080fd5b600047905060003373ffffffffffffffffffffffffffffffffffffffff168260405161117390614760565b60006040518083038185875af1925050503d80600081146111b0576040519150601f19603f3d011682016040523d82523d6000602084013e6111b5565b606091505b50509050806111f9576040517f08c379a00000000000000000000000000000000000000000000000000000000081526004016111f0906147c1565b60405180910390fd5b5050565b611218838383604051806020016040528060008152506118de565b505050565b600f602052806000526040600020600091509050805461123c906144ff565b80601f0160208091040260200160405190810160405280929190818152602001828054611268906144ff565b80156112b55780601f1061128a576101008083540402835291602001916112b5565b820191906000526020600020905b81548152906001019060200180831161129857829003601f168201915b505050505081565b600c8180516020810182018051848252602083016020850120818352809550505050505060009150905080546112f2906144ff565b80601f016020809104026020016040519081016040528092919081815260200182805461131e906144ff565b801561136b5780601f106113405761010080835404028352916020019161136b565b820191906000526020600020905b81548152906001019060200180831161134e57829003601f168201915b505050505081565b60008061137f83612843565b9050600073ffffffffffffffffffffffffffffffffffffffff168173ffffffffffffffffffffffffffffffffffffffff16036113f0576040517f08c379a00000000000000000000000000000000000000000000000000000000081526004016113e79061482d565b60405180910390fd5b80915050919050565b60008073ffffffffffffffffffffffffffffffffffffffff168273ffffffffffffffffffffffffffffffffffffffff1603611469576040517f08c379a0000000000000000000000000000000000000000000000000000000008152600401611460906148bf565b60405180910390fd5b600360008373ffffffffffffffffffffffffffffffffffffffff1673ffffffffffffffffffffffffffffffffffffffff168152602001908152602001600020549050919050565b60006040518060a001604052803373ffffffffffffffffffffffffffffffffffffffff16815260200188888080601f016020809104026020016040519081016040528093929190818152602001838380828437600081840152601f19601f82011690508083019250505050505050815260200186868080601f016020809104026020016040519081016040528093929190818152602001838380828437600081840152601f19601f82011690508083019250505050505050815260200184848080601f016020809104026020016040519081016040528093929190818152602001838380828437600081840152601f19601f820116905080830192505050505050508152602001428152509050600d60008973ffffffffffffffffffffffffffffffffffffffff1673ffffffffffffffffffffffffffffffffffffffff16815260200190815260200160002081908060018154018082558091505060019003906000526020600020906005020160009091909190915060008201518160000160006101000a81548173ffffffffffffffffffffffffffffffffffffffff021916908373ffffffffffffffffffffffffffffffffffffffff16021790555060208201518160010190816116829190614a8b565b5060408201518160020190816116989190614a8b565b5060608201518160030190816116ae9190614a8b565b506080820151816004015550506116fa6040518060400160405280601981526020017f257320686173207365742061207472616e73616374696f6e210000000000000081525033612880565b5050505050505050565b600e60009054906101000a900473ffffffffffffffffffffffffffffffffffffffff1681565b6000600e60009054906101000a900473ffffffffffffffffffffffffffffffffffffffff1673ffffffffffffffffffffffffffffffffffffffff163373ffffffffffffffffffffffffffffffffffffffff1614905090565b606060018054611791906144ff565b80601f01602080910402602001604051908101604052809291908181526020018280546117bd906144ff565b801561180a5780601f106117df5761010080835404028352916020019161180a565b820191906000526020600020905b8154815290600101906020018083116117ed57829003601f168201915b5050505050905090565b6000600361186584848080601f016020809104026020016040519081016040528093929190818152602001838380828437600081840152601f19601f8201169050808301925050505050505061291c565b101580156118c05750600a6118bd84848080601f016020809104026020016040519081016040528093929190818152602001838380828437600081840152601f19601f8201169050808301925050505050505061291c565b11155b905092915050565b6118da6118d36123f4565b8383612ad1565b5050565b6118ef6118e96123f4565b836124b5565b61192e576040517f08c379a00000000000000000000000000000000000000000000000000000000081526004016119259061470f565b60405180910390fd5b61193a84848484612c3d565b50505050565b6000600b8383604051611954929190614684565b908152602001604051809103902060009054906101000a900473ffffffffffffffffffffffffffffffffffffffff16905092915050565b8181600c868660405161199f929190614684565b908152602001604051809103902091826119ba929190614b68565b506119fa6040518060400160405280601481526020017f257320686173207365742061207265636f72642100000000000000000000000081525033612880565b50505050565b6060611a0b826123a9565b6000600660008481526020019081526020016000208054611a2b906144ff565b80601f0160208091040260200160405190810160405280929190818152602001828054611a57906144ff565b8015611aa45780601f10611a7957610100808354040283529160200191611aa4565b820191906000526020600020905b815481529060010190602001808311611a8757829003601f168201915b505050505090506000611ab5612c99565b90506000815103611aca578192505050611b0d565b600082511115611aff578082604051602001611ae7929190614c69565b60405160208183030381529060405292505050611b0d565b611b0884612cb0565b925050505b919050565b6000600560008473ffffffffffffffffffffffffffffffffffffffff1673ffffffffffffffffffffffffffffffffffffffff16815260200190815260200160002060008373ffffffffffffffffffffffffffffffffffffffff1673ffffffffffffffffffffffffffffffffffffffff16815260200190815260200160002060009054906101000a900460ff16905092915050565b600073ffffffffffffffffffffffffffffffffffffffff16600b8383604051611bd0929190614684565b908152602001604051809103902060009054906101000a900473ffffffffffffffffffffffffffffffffffffffff1673ffffffffffffffffffffffffffffffffffffffff1614611c4c576040517f3a81d6fc00000000000000000000000000000000000000000000000000000000815260040160405180910390fd5b611c568282611814565b611c995781816040517f7f19f48d000000000000000000000000000000000000000000000000000000008152600401611c90929190614cba565b60405180910390fd5b6000611ca58383612202565b905080341015611cea576040517f08c379a0000000000000000000000000000000000000000000000000000000008152600401611ce190614d2a565b60405180910390fd5b600083836008604051602001611d0293929190614e19565b60405160208183030381529060405290506000600982600a604051602001611d2c93929190614e4a565b60405160208183030381529060405290506000611d496007612d18565b90506000611d9a87878080601f016020809104026020016040519081016040528093929190818152602001838380828437600081840152601f19601f8201169050808301925050505050505061291c565b90506000611da782612d26565b9050611e9b6040518060600160405280603181526020016158216031913989898080601f016020809104026020016040519081016040528093929190818152602001838380828437600081840152601f19601f8201169050808301925050505050505060088054611e17906144ff565b80601f0160208091040260200160405190810160405280929190818152602001828054611e43906144ff565b8015611e905780601f10611e6557610100808354040283529160200191611e90565b820191906000526020600020905b815481529060010190602001808311611e7357829003601f168201915b505050505086612df4565b6000611ed186611eaa87612e96565b84604051602001611ebd93929190614ff7565b604051602081830303815290604052612e96565b9050600081604051602001611ee691906150a0565b6040516020818303038152906040529050611f186040518060600160405280603981526020016157e860399139612ff9565b611f576040518060400160405280600e81526020017f46696e616c20746f6b656e555249000000000000000000000000000000000000815250826122a3565b611f7860405180606001604052806039815260200161585260399139612ff9565b611f823386613092565b611f8c85826130b0565b33600b8b8b604051611f9f929190614684565b908152602001604051809103902060006101000a81548173ffffffffffffffffffffffffffffffffffffffff021916908373ffffffffffffffffffffffffffffffffffffffff1602179055508989600f6000888152602001908152602001600020918261200d929190614b68565b50612018600761311d565b50505050505050505050565b60606120646040518060400160405280601f81526020017f47657474696e6720616c6c206e616d65732066726f6d20636f6e747261637400815250612ff9565b60006120706007612d18565b67ffffffffffffffff81111561208957612088613f07565b5b6040519080825280602002602001820160405280156120bc57816020015b60608152602001906001900390816120a75790505b50905060005b6120cc6007612d18565b8110156121fa57600f600082815260200190815260200160002080546120f1906144ff565b80601f016020809104026020016040519081016040528092919081815260200182805461211d906144ff565b801561216a5780601f1061213f5761010080835404028352916020019161216a565b820191906000526020600020905b81548152906001019060200180831161214d57829003601f168201915b5050505050828281518110612182576121816150c2565b5b60200260200101819052506121e76040518060400160405280601781526020017f4e616d6520666f7220746f6b656e202564206973202573000000000000000000815250828484815181106121da576121d96150c2565b5b6020026020010151613133565b80806121f290615120565b9150506120c2565b508091505090565b60008061225284848080601f016020809104026020016040519081016040528093929190818152602001838380828437600081840152601f19601f8201169050808301925050505050505061291c565b90506000811161226157600080fd5b600381036122795766b1a2bc2ec5000091505061229d565b600481036122915766470de4df82000091505061229d565b662386f26fc100009150505b92915050565b61233b82826040516024016122b9929190615168565b6040516020818303038152906040527f4b5c4277000000000000000000000000000000000000000000000000000000007bffffffffffffffffffffffffffffffffffffffffffffffffffffffff19166020820180517bffffffffffffffffffffffffffffffffffffffffffffffffffffffff83818316178352505050506131d2565b5050565b60007f01ffc9a7000000000000000000000000000000000000000000000000000000007bffffffffffffffffffffffffffffffffffffffffffffffffffffffff1916827bffffffffffffffffffffffffffffffffffffffffffffffffffffffff1916149050919050565b6123b2816131fb565b6123f1576040517f08c379a00000000000000000000000000000000000000000000000000000000081526004016123e89061482d565b60405180910390fd5b50565b600033905090565b816004600083815260200190815260200160002060006101000a81548173ffffffffffffffffffffffffffffffffffffffff021916908373ffffffffffffffffffffffffffffffffffffffff160217905550808273ffffffffffffffffffffffffffffffffffffffff1661246f83611373565b73ffffffffffffffffffffffffffffffffffffffff167f8c5be1e5ebec7d5bd14f71427d1e84f3dd0314c0f7b2291e5b200ac8c7c3b92560405160405180910390a45050565b6000806124c183611373565b90508073ffffffffffffffffffffffffffffffffffffffff168473ffffffffffffffffffffffffffffffffffffffff16148061250357506125028185611b12565b5b8061254157508373ffffffffffffffffffffffffffffffffffffffff1661252984610931565b73ffffffffffffffffffffffffffffffffffffffff16145b91505092915050565b8273ffffffffffffffffffffffffffffffffffffffff1661256a82611373565b73ffffffffffffffffffffffffffffffffffffffff16146125c0576040517f08c379a00000000000000000000000000000000000000000000000000000000081526004016125b790615211565b60405180910390fd5b600073ffffffffffffffffffffffffffffffffffffffff168273ffffffffffffffffffffffffffffffffffffffff160361262f576040517f08c379a0000000000000000000000000000000000000000000000000000000008152600401612626906152a3565b60405180910390fd5b61263c838383600161323c565b8273ffffffffffffffffffffffffffffffffffffffff1661265c82611373565b73ffffffffffffffffffffffffffffffffffffffff16146126b2576040517f08c379a00000000000000000000000000000000000000000000000000000000081526004016126a990615211565b60405180910390fd5b6004600082815260200190815260200160002060006101000a81549073ffffffffffffffffffffffffffffffffffffffff02191690556001600360008573ffffffffffffffffffffffffffffffffffffffff1673ffffffffffffffffffffffffffffffffffffffff168152602001908152602001600020600082825403925050819055506001600360008473ffffffffffffffffffffffffffffffffffffffff1673ffffffffffffffffffffffffffffffffffffffff16815260200190815260200160002060008282540192505081905550816002600083815260200190815260200160002060006101000a81548173ffffffffffffffffffffffffffffffffffffffff021916908373ffffffffffffffffffffffffffffffffffffffff160217905550808273ffffffffffffffffffffffffffffffffffffffff168473ffffffffffffffffffffffffffffffffffffffff167fddf252ad1be2c89b69c2b068fc378daa952ba7f163c4a11628f55a4df523b3ef60405160405180910390a461283e8383836001613362565b505050565b60006002600083815260200190815260200160002060009054906101000a900473ffffffffffffffffffffffffffffffffffffffff169050919050565b61291882826040516024016128969291906152c3565b6040516020818303038152906040527f319af333000000000000000000000000000000000000000000000000000000007bffffffffffffffffffffffffffffffffffffffffffffffffffffffff19166020820180517bffffffffffffffffffffffffffffffffffffffffffffffffffffffff83818316178352505050506131d2565b5050565b60008060008084519050600092505b80821015612ac6576000858381518110612948576129476150c2565b5b602001015160f81c60f81b9050608060f81b817effffffffffffffffffffffffffffffffffffffffffffffffffffffffffffff191610156129975760018361299091906152f3565b9250612ab2565b60e060f81b817effffffffffffffffffffffffffffffffffffffffffffffffffffffffffffff191610156129d9576002836129d291906152f3565b9250612ab1565b60f060f81b817effffffffffffffffffffffffffffffffffffffffffffffffffffffffffffff19161015612a1b57600383612a1491906152f3565b9250612ab0565b60f8801b817effffffffffffffffffffffffffffffffffffffffffffffffffffffffffffff19161015612a5c57600483612a5591906152f3565b9250612aaf565b60fc60f81b817effffffffffffffffffffffffffffffffffffffffffffffffffffffffffffff19161015612a9e57600583612a9791906152f3565b9250612aae565b600683612aab91906152f3565b92505b5b5b5b5b508280612abe90615120565b93505061292b565b829350505050919050565b8173ffffffffffffffffffffffffffffffffffffffff168373ffffffffffffffffffffffffffffffffffffffff1603612b3f576040517f08c379a0000000000000000000000000000000000000000000000000000000008152600401612b3690615373565b60405180910390fd5b80600560008573ffffffffffffffffffffffffffffffffffffffff1673ffffffffffffffffffffffffffffffffffffffff16815260200190815260200160002060008473ffffffffffffffffffffffffffffffffffffffff1673ffffffffffffffffffffffffffffffffffffffff16815260200190815260200160002060006101000a81548160ff0219169083151502179055508173ffffffffffffffffffffffffffffffffffffffff168373ffffffffffffffffffffffffffffffffffffffff167f17307eab39ab6107e8899845ad3d59bd9653f200f220920489ca2b5937696c3183604051612c309190613991565b60405180910390a3505050565b612c4884848461254a565b612c5484848484613368565b612c93576040517f08c379a0000000000000000000000000000000000000000000000000000000008152600401612c8a90615405565b60405180910390fd5b50505050565b606060405180602001604052806000815250905090565b6060612cbb826123a9565b6000612cc5612c99565b90506000815111612ce55760405180602001604052806000815250612d10565b80612cef84612d26565b604051602001612d00929190614c69565b6040516020818303038152906040525b915050919050565b600081600001549050919050565b606060006001612d35846134ef565b01905060008167ffffffffffffffff811115612d5457612d53613f07565b5b6040519080825280601f01601f191660200182016040528015612d865781602001600182028036833780820191505090505b509050600082602001820190505b600115612de9578080600190039150507f3031323334353637383961626364656600000000000000000000000000000000600a86061a8153600a8581612ddd57612ddc615425565b5b04945060008503612d94575b819350505050919050565b612e9084848484604051602401612e0e9493929190615454565b6040516020818303038152906040527f8eafb02b000000000000000000000000000000000000000000000000000000007bffffffffffffffffffffffffffffffffffffffffffffffffffffffff19166020820180517bffffffffffffffffffffffffffffffffffffffffffffffffffffffff83818316178352505050506131d2565b50505050565b60606000825103612eb857604051806020016040528060008152509050612ff4565b600060405180606001604052806040815260200161588b6040913990506000600360028551612ee791906152f3565b612ef191906154ae565b6004612efd91906154df565b67ffffffffffffffff811115612f1657612f15613f07565b5b6040519080825280601f01601f191660200182016040528015612f485781602001600182028036833780820191505090505b509050600182016020820185865187015b80821015612fb4576003820191508151603f8160121c168501518453600184019350603f81600c1c168501518453600184019350603f8160061c168501518453600184019350603f8116850151845360018401935050612f59565b5050600386510660018114612fd05760028114612fe357612feb565b603d6001830353603d6002830353612feb565b603d60018303535b50505080925050505b919050565b61308f8160405160240161300d9190613a3c565b6040516020818303038152906040527f41304fac000000000000000000000000000000000000000000000000000000007bffffffffffffffffffffffffffffffffffffffffffffffffffffffff19166020820180517bffffffffffffffffffffffffffffffffffffffffffffffffffffffff83818316178352505050506131d2565b50565b6130ac828260405180602001604052806000815250613642565b5050565b6130b9826131fb565b6130f8576040517f08c379a00000000000000000000000000000000000000000000000000000000081526004016130ef90615593565b60405180910390fd5b806006600084815260200190815260200160002090816131189190614a8b565b505050565b6001816000016000828254019250508190555050565b6131cd83838360405160240161314b939291906155b3565b6040516020818303038152906040527f5970e089000000000000000000000000000000000000000000000000000000007bffffffffffffffffffffffffffffffffffffffffffffffffffffffff19166020820180517bffffffffffffffffffffffffffffffffffffffffffffffffffffffff83818316178352505050506131d2565b505050565b60008151905060006a636f6e736f6c652e6c6f679050602083016000808483855afa5050505050565b60008073ffffffffffffffffffffffffffffffffffffffff1661321d83612843565b73ffffffffffffffffffffffffffffffffffffffff1614159050919050565b600181111561335c57600073ffffffffffffffffffffffffffffffffffffffff168473ffffffffffffffffffffffffffffffffffffffff16146132d05780600360008673ffffffffffffffffffffffffffffffffffffffff1673ffffffffffffffffffffffffffffffffffffffff16815260200190815260200160002060008282546132c891906155f8565b925050819055505b600073ffffffffffffffffffffffffffffffffffffffff168373ffffffffffffffffffffffffffffffffffffffff161461335b5780600360008573ffffffffffffffffffffffffffffffffffffffff1673ffffffffffffffffffffffffffffffffffffffff168152602001908152602001600020600082825461335391906152f3565b925050819055505b5b50505050565b50505050565b60006133898473ffffffffffffffffffffffffffffffffffffffff1661369d565b156134e2578373ffffffffffffffffffffffffffffffffffffffff1663150b7a026133b26123f4565b8786866040518563ffffffff1660e01b81526004016133d49493929190615681565b6020604051808303816000875af192505050801561341057506040513d601f19601f8201168201806040525081019061340d91906156e2565b60015b613492573d8060008114613440576040519150601f19603f3d011682016040523d82523d6000602084013e613445565b606091505b50600081510361348a576040517f08c379a000000000000000000000000000000000000000000000000000000000815260040161348190615405565b60405180910390fd5b805181602001fd5b63150b7a0260e01b7bffffffffffffffffffffffffffffffffffffffffffffffffffffffff1916817bffffffffffffffffffffffffffffffffffffffffffffffffffffffff1916149150506134e7565b600190505b949350505050565b600080600090507a184f03e93ff9f4daa797ed6e38ed64bf6a1f010000000000000000831061354d577a184f03e93ff9f4daa797ed6e38ed64bf6a1f010000000000000000838161354357613542615425565b5b0492506040810190505b6d04ee2d6d415b85acef8100000000831061358a576d04ee2d6d415b85acef810000000083816135805761357f615425565b5b0492506020810190505b662386f26fc1000083106135b957662386f26fc1000083816135af576135ae615425565b5b0492506010810190505b6305f5e10083106135e2576305f5e10083816135d8576135d7615425565b5b0492506008810190505b61271083106136075761271083816135fd576135fc615425565b5b0492506004810190505b6064831061362a57606483816136205761361f615425565b5b0492506002810190505b600a8310613639576001810190505b80915050919050565b61364c83836136c0565b6136596000848484613368565b613698576040517f08c379a000000000000000000000000000000000000000000000000000000000815260040161368f90615405565b60405180910390fd5b505050565b6000808273ffffffffffffffffffffffffffffffffffffffff163b119050919050565b600073ffffffffffffffffffffffffffffffffffffffff168273ffffffffffffffffffffffffffffffffffffffff160361372f576040517f08c379a00000000000000000000000000000000000000000000000000000000081526004016137269061575b565b60405180910390fd5b613738816131fb565b15613778576040517f08c379a000000000000000000000000000000000000000000000000000000000815260040161376f906157c7565b60405180910390fd5b61378660008383600161323c565b61378f816131fb565b156137cf576040517f08c379a00000000000000000000000000000000000000000000000000000000081526004016137c6906157c7565b60405180910390fd5b6001600360008473ffffffffffffffffffffffffffffffffffffffff1673ffffffffffffffffffffffffffffffffffffffff16815260200190815260200160002060008282540192505081905550816002600083815260200190815260200160002060006101000a81548173ffffffffffffffffffffffffffffffffffffffff021916908373ffffffffffffffffffffffffffffffffffffffff160217905550808273ffffffffffffffffffffffffffffffffffffffff16600073ffffffffffffffffffffffffffffffffffffffff167fddf252ad1be2c89b69c2b068fc378daa952ba7f163c4a11628f55a4df523b3ef60405160405180910390a46138d9600083836001613362565b5050565b6000604051905090565b600080fd5b600080fd5b60007fffffffff0000000000000000000000000000000000000000000000000000000082169050919050565b613926816138f1565b811461393157600080fd5b50565b6000813590506139438161391d565b92915050565b60006020828403121561395f5761395e6138e7565b5b600061396d84828501613934565b91505092915050565b60008115159050919050565b61398b81613976565b82525050565b60006020820190506139a66000830184613982565b92915050565b600081519050919050565b600082825260208201905092915050565b60005b838110156139e65780820151818401526020810190506139cb565b60008484015250505050565b6000601f19601f8301169050919050565b6000613a0e826139ac565b613a1881856139b7565b9350613a288185602086016139c8565b613a31816139f2565b840191505092915050565b60006020820190508181036000830152613a568184613a03565b905092915050565b6000819050919050565b613a7181613a5e565b8114613a7c57600080fd5b50565b600081359050613a8e81613a68565b92915050565b600060208284031215613aaa57613aa96138e7565b5b6000613ab884828501613a7f565b91505092915050565b600073ffffffffffffffffffffffffffffffffffffffff82169050919050565b6000613aec82613ac1565b9050919050565b613afc81613ae1565b82525050565b6000602082019050613b176000830184613af3565b92915050565b613b2681613ae1565b8114613b3157600080fd5b50565b600081359050613b4381613b1d565b92915050565b60008060408385031215613b6057613b5f6138e7565b5b6000613b6e85828601613b34565b9250506020613b7f85828601613a7f565b9150509250929050565b600060208284031215613b9f57613b9e6138e7565b5b6000613bad84828501613b34565b91505092915050565b600081519050919050565b600082825260208201905092915050565b6000819050602082019050919050565b613beb81613ae1565b82525050565b600082825260208201905092915050565b6000613c0d826139ac565b613c178185613bf1565b9350613c278185602086016139c8565b613c30816139f2565b840191505092915050565b613c4481613a5e565b82525050565b600060a083016000830151613c626000860182613be2565b5060208301518482036020860152613c7a8282613c02565b91505060408301518482036040860152613c948282613c02565b91505060608301518482036060860152613cae8282613c02565b9150506080830151613cc36080860182613c3b565b508091505092915050565b6000613cda8383613c4a565b905092915050565b6000602082019050919050565b6000613cfa82613bb6565b613d048185613bc1565b935083602082028501613d1685613bd2565b8060005b85811015613d525784840389528151613d338582613cce565b9450613d3e83613ce2565b925060208a01995050600181019050613d1a565b50829750879550505050505092915050565b60006020820190508181036000830152613d7e8184613cef565b905092915050565b600080fd5b600080fd5b600080fd5b60008083601f840112613dab57613daa613d86565b5b8235905067ffffffffffffffff811115613dc857613dc7613d8b565b5b602083019150836001820283011115613de457613de3613d90565b5b9250929050565b60008060208385031215613e0257613e016138e7565b5b600083013567ffffffffffffffff811115613e2057613e1f6138ec565b5b613e2c85828601613d95565b92509250509250929050565b613e4181613a5e565b82525050565b600060a082019050613e5c6000830188613af3565b8181036020830152613e6e8187613a03565b90508181036040830152613e828186613a03565b90508181036060830152613e968185613a03565b9050613ea56080830184613e38565b9695505050505050565b600080600060608486031215613ec857613ec76138e7565b5b6000613ed686828701613b34565b9350506020613ee786828701613b34565b9250506040613ef886828701613a7f565b9150509250925092565b600080fd5b7f4e487b7100000000000000000000000000000000000000000000000000000000600052604160045260246000fd5b613f3f826139f2565b810181811067ffffffffffffffff82111715613f5e57613f5d613f07565b5b80604052505050565b6000613f716138dd565b9050613f7d8282613f36565b919050565b600067ffffffffffffffff821115613f9d57613f9c613f07565b5b613fa6826139f2565b9050602081019050919050565b82818337600083830152505050565b6000613fd5613fd084613f82565b613f67565b905082815260208101848484011115613ff157613ff0613f02565b5b613ffc848285613fb3565b509392505050565b600082601f83011261401957614018613d86565b5b8135614029848260208601613fc2565b91505092915050565b600060208284031215614048576140476138e7565b5b600082013567ffffffffffffffff811115614066576140656138ec565b5b61407284828501614004565b91505092915050565b60006020820190506140906000830184613e38565b92915050565b60008060008060008060006080888a0312156140b5576140b46138e7565b5b60006140c38a828b01613b34565b975050602088013567ffffffffffffffff8111156140e4576140e36138ec565b5b6140f08a828b01613d95565b9650965050604088013567ffffffffffffffff811115614113576141126138ec565b5b61411f8a828b01613d95565b9450945050606088013567ffffffffffffffff811115614142576141416138ec565b5b61414e8a828b01613d95565b925092505092959891949750929550565b600061416a82613ac1565b9050919050565b61417a8161415f565b82525050565b60006020820190506141956000830184614171565b92915050565b6141a481613976565b81146141af57600080fd5b50565b6000813590506141c18161419b565b92915050565b600080604083850312156141de576141dd6138e7565b5b60006141ec85828601613b34565b92505060206141fd858286016141b2565b9150509250929050565b600067ffffffffffffffff82111561422257614221613f07565b5b61422b826139f2565b9050602081019050919050565b600061424b61424684614207565b613f67565b90508281526020810184848401111561426757614266613f02565b5b614272848285613fb3565b509392505050565b600082601f83011261428f5761428e613d86565b5b813561429f848260208601614238565b91505092915050565b600080600080608085870312156142c2576142c16138e7565b5b60006142d087828801613b34565b94505060206142e187828801613b34565b93505060406142f287828801613a7f565b925050606085013567ffffffffffffffff811115614313576143126138ec565b5b61431f8782880161427a565b91505092959194509250565b60008060008060408587031215614345576143446138e7565b5b600085013567ffffffffffffffff811115614363576143626138ec565b5b61436f87828801613d95565b9450945050602085013567ffffffffffffffff811115614392576143916138ec565b5b61439e87828801613d95565b925092505092959194509250565b600080604083850312156143c3576143c26138e7565b5b60006143d185828601613b34565b92505060206143e285828601613b34565b9150509250929050565b600081519050919050565b600082825260208201905092915050565b6000819050602082019050919050565b60006144248383613c02565b905092915050565b6000602082019050919050565b6000614444826143ec565b61444e81856143f7565b93508360208202850161446085614408565b8060005b8581101561449c578484038952815161447d8582614418565b94506144888361442c565b925060208a01995050600181019050614464565b50829750879550505050505092915050565b600060208201905081810360008301526144c88184614439565b905092915050565b7f4e487b7100000000000000000000000000000000000000000000000000000000600052602260045260246000fd5b6000600282049050600182168061451757607f821691505b60208210810361452a576145296144d0565b5b50919050565b7f4552433732313a20617070726f76616c20746f2063757272656e74206f776e6560008201527f7200000000000000000000000000000000000000000000000000000000000000602082015250565b600061458c6021836139b7565b915061459782614530565b604082019050919050565b600060208201905081810360008301526145bb8161457f565b9050919050565b7f4552433732313a20617070726f76652063616c6c6572206973206e6f7420746f60008201527f6b656e206f776e6572206f7220617070726f76656420666f7220616c6c000000602082015250565b600061461e603d836139b7565b9150614629826145c2565b604082019050919050565b6000602082019050818103600083015261464d81614611565b9050919050565b600081905092915050565b600061466b8385614654565b9350614678838584613fb3565b82840190509392505050565b600061469182848661465f565b91508190509392505050565b7f4552433732313a2063616c6c6572206973206e6f7420746f6b656e206f776e6560008201527f72206f7220617070726f76656400000000000000000000000000000000000000602082015250565b60006146f9602d836139b7565b91506147048261469d565b604082019050919050565b60006020820190508181036000830152614728816146ec565b9050919050565b600081905092915050565b50565b600061474a60008361472f565b91506147558261473a565b600082019050919050565b600061476b8261473d565b9150819050919050565b7f4661696c656420746f207769746864726177204d617469630000000000000000600082015250565b60006147ab6018836139b7565b91506147b682614775565b602082019050919050565b600060208201905081810360008301526147da8161479e565b9050919050565b7f4552433732313a20696e76616c696420746f6b656e2049440000000000000000600082015250565b60006148176018836139b7565b9150614822826147e1565b602082019050919050565b600060208201905081810360008301526148468161480a565b9050919050565b7f4552433732313a2061646472657373207a65726f206973206e6f74206120766160008201527f6c6964206f776e65720000000000000000000000000000000000000000000000602082015250565b60006148a96029836139b7565b91506148b48261484d565b604082019050919050565b600060208201905081810360008301526148d88161489c565b9050919050565b60008190508160005260206000209050919050565b60006020601f8301049050919050565b600082821b905092915050565b6000600883026149417fffffffffffffffffffffffffffffffffffffffffffffffffffffffffffffffff82614904565b61494b8683614904565b95508019841693508086168417925050509392505050565b6000819050919050565b600061498861498361497e84613a5e565b614963565b613a5e565b9050919050565b6000819050919050565b6149a28361496d565b6149b66149ae8261498f565b848454614911565b825550505050565b600090565b6149cb6149be565b6149d6818484614999565b505050565b5b818110156149fa576149ef6000826149c3565b6001810190506149dc565b5050565b601f821115614a3f57614a10816148df565b614a19846148f4565b81016020851015614a28578190505b614a3c614a34856148f4565b8301826149db565b50505b505050565b600082821c905092915050565b6000614a6260001984600802614a44565b1980831691505092915050565b6000614a7b8383614a51565b9150826002028217905092915050565b614a94826139ac565b67ffffffffffffffff811115614aad57614aac613f07565b5b614ab782546144ff565b614ac28282856149fe565b600060209050601f831160018114614af55760008415614ae3578287015190505b614aed8582614a6f565b865550614b55565b601f198416614b03866148df565b60005b82811015614b2b57848901518255600182019150602085019450602081019050614b06565b86831015614b485784890151614b44601f891682614a51565b8355505b6001600288020188555050505b505050505050565b600082905092915050565b614b728383614b5d565b67ffffffffffffffff811115614b8b57614b8a613f07565b5b614b9582546144ff565b614ba08282856149fe565b6000601f831160018114614bcf5760008415614bbd578287013590505b614bc78582614a6f565b865550614c2f565b601f198416614bdd866148df565b60005b82811015614c0557848901358255600182019150602085019450602081019050614be0565b86831015614c225784890135614c1e601f891682614a51565b8355505b6001600288020188555050505b50505050505050565b6000614c43826139ac565b614c4d8185614654565b9350614c5d8185602086016139c8565b80840191505092915050565b6000614c758285614c38565b9150614c818284614c38565b91508190509392505050565b6000614c9983856139b7565b9350614ca6838584613fb3565b614caf836139f2565b840190509392505050565b60006020820190508181036000830152614cd5818486614c8d565b90509392505050565b7f4e6f7420656e6f756768206d6174696320706169640000000000000000000000600082015250565b6000614d146015836139b7565b9150614d1f82614cde565b602082019050919050565b60006020820190508181036000830152614d4381614d07565b9050919050565b7f2e00000000000000000000000000000000000000000000000000000000000000600082015250565b6000614d80600183614654565b9150614d8b82614d4a565b600182019050919050565b60008154614da3816144ff565b614dad8186614654565b94506001821660008114614dc85760018114614ddd57614e10565b60ff1983168652811515820286019350614e10565b614de6856148df565b60005b83811015614e0857815481890152600182019150602081019050614de9565b838801955050505b50505092915050565b6000614e2682858761465f565b9150614e3182614d73565b9150614e3d8284614d96565b9150819050949350505050565b6000614e568286614d96565b9150614e628285614c38565b9150614e6e8284614d96565b9150819050949350505050565b7f7b226e616d65223a202200000000000000000000000000000000000000000000600082015250565b6000614eb1600a83614654565b9150614ebc82614e7b565b600a82019050919050565b7f222c20226465736372697074696f6e223a20224120646f6d61696e206f6e207460008201527f686520646f6d61696e206e616d652073657276696365222c2022696d6167652260208201527f3a2022646174613a696d6167652f7376672b786d6c3b6261736536342c000000604082015250565b6000614f49605d83614654565b9150614f5482614ec7565b605d82019050919050565b7f222c226c656e677468223a220000000000000000000000000000000000000000600082015250565b6000614f95600c83614654565b9150614fa082614f5f565b600c82019050919050565b7f227d000000000000000000000000000000000000000000000000000000000000600082015250565b6000614fe1600283614654565b9150614fec82614fab565b600282019050919050565b600061500282614ea4565b915061500e8286614c38565b915061501982614f3c565b91506150258285614c38565b915061503082614f88565b915061503c8284614c38565b915061504782614fd4565b9150819050949350505050565b7f646174613a6170706c69636174696f6e2f6a736f6e3b6261736536342c000000600082015250565b600061508a601d83614654565b915061509582615054565b601d82019050919050565b60006150ab8261507d565b91506150b78284614c38565b915081905092915050565b7f4e487b7100000000000000000000000000000000000000000000000000000000600052603260045260246000fd5b7f4e487b7100000000000000000000000000000000000000000000000000000000600052601160045260246000fd5b600061512b82613a5e565b91507fffffffffffffffffffffffffffffffffffffffffffffffffffffffffffffffff820361515d5761515c6150f1565b5b600182019050919050565b600060408201905081810360008301526151828185613a03565b905081810360208301526151968184613a03565b90509392505050565b7f4552433732313a207472616e736665722066726f6d20696e636f72726563742060008201527f6f776e6572000000000000000000000000000000000000000000000000000000602082015250565b60006151fb6025836139b7565b91506152068261519f565b604082019050919050565b6000602082019050818103600083015261522a816151ee565b9050919050565b7f4552433732313a207472616e7366657220746f20746865207a65726f2061646460008201527f7265737300000000000000000000000000000000000000000000000000000000602082015250565b600061528d6024836139b7565b915061529882615231565b604082019050919050565b600060208201905081810360008301526152bc81615280565b9050919050565b600060408201905081810360008301526152dd8185613a03565b90506152ec6020830184613af3565b9392505050565b60006152fe82613a5e565b915061530983613a5e565b9250828201905080821115615321576153206150f1565b5b92915050565b7f4552433732313a20617070726f766520746f2063616c6c657200000000000000600082015250565b600061535d6019836139b7565b915061536882615327565b602082019050919050565b6000602082019050818103600083015261538c81615350565b9050919050565b7f4552433732313a207472616e7366657220746f206e6f6e20455243373231526560008201527f63656976657220696d706c656d656e7465720000000000000000000000000000602082015250565b60006153ef6032836139b7565b91506153fa82615393565b604082019050919050565b6000602082019050818103600083015261541e816153e2565b9050919050565b7f4e487b7100000000000000000000000000000000000000000000000000000000600052601260045260246000fd5b6000608082019050818103600083015261546e8187613a03565b905081810360208301526154828186613a03565b905081810360408301526154968185613a03565b90506154a56060830184613e38565b95945050505050565b60006154b982613a5e565b91506154c483613a5e565b9250826154d4576154d3615425565b5b828204905092915050565b60006154ea82613a5e565b91506154f583613a5e565b925082820261550381613a5e565b9150828204841483151761551a576155196150f1565b5b5092915050565b7f45524337323155524953746f726167653a2055524920736574206f66206e6f6e60008201527f6578697374656e7420746f6b656e000000000000000000000000000000000000602082015250565b600061557d602e836139b7565b915061558882615521565b604082019050919050565b600060208201905081810360008301526155ac81615570565b9050919050565b600060608201905081810360008301526155cd8186613a03565b90506155dc6020830185613e38565b81810360408301526155ee8184613a03565b9050949350505050565b600061560382613a5e565b915061560e83613a5e565b9250828203905081811115615626576156256150f1565b5b92915050565b600081519050919050565b600082825260208201905092915050565b60006156538261562c565b61565d8185615637565b935061566d8185602086016139c8565b615676816139f2565b840191505092915050565b60006080820190506156966000830187613af3565b6156a36020830186613af3565b6156b06040830185613e38565b81810360608301526156c28184615648565b905095945050505050565b6000815190506156dc8161391d565b92915050565b6000602082840312156156f8576156f76138e7565b5b6000615706848285016156cd565b91505092915050565b7f4552433732313a206d696e7420746f20746865207a65726f2061646472657373600082015250565b60006157456020836139b7565b91506157508261570f565b602082019050919050565b6000602082019050818103600083015261577481615738565b9050919050565b7f4552433732313a20746f6b656e20616c7265616479206d696e74656400000000600082015250565b60006157b1601c836139b7565b91506157bc8261577b565b602082019050919050565b600060208201905081810360008301526157e0816157a4565b905091905056fe0a2d2d2d2d2d2d2d2d2d2d2d2d2d2d2d2d2d2d2d2d2d2d2d2d2d2d2d2d2d2d2d2d2d2d2d2d2d2d2d2d2d2d2d2d2d2d2d2d2d2d2d2d2d2d2d2d5265676973746572696e672025732e2573206f6e2074686520636f6e7472616374207769746820746f6b656e49442025642d2d2d2d2d2d2d2d2d2d2d2d2d2d2d2d2d2d2d2d2d2d2d2d2d2d2d2d2d2d2d2d2d2d2d2d2d2d2d2d2d2d2d2d2d2d2d2d2d2d2d2d2d2d2d2d0a4142434445464748494a4b4c4d4e4f505152535455565758595a6162636465666768696a6b6c6d6e6f707172737475767778797a303132333435363738392b2fa26469706673582212202487af38b7ba587dd2999c2a2aa3f6de780d26eaea9f48c2c5d36392dd8a8a6564736f6c634300081100333c73766720786d6c6e733d22687474703a2f2f7777772e77332e6f72672f323030302f737667222077696474683d2232373022206865696768743d22323730222066696c6c3d226e6f6e65223e3c706174682066696c6c3d2275726c282342292220643d224d302030683237307632373048307a222f3e3c646566733e3c66696c7465722069643d22412220636f6c6f722d696e746572706f6c6174696f6e2d66696c746572733d2273524742222066696c746572556e6974733d227573657253706163654f6e55736522206865696768743d22323730222077696474683d22323730223e3c666544726f70536861646f772064783d2230222064793d22312220737464446576696174696f6e3d22322220666c6f6f642d6f7061636974793d222e323235222077696474683d223230302522206865696768743d2232303025222f3e3c2f66696c7465723e3c2f646566733e3c7061746820643d224d37322e3836332034322e393439632d2e3636382d2e3338372d312e3432362d2e35392d322e3139372d2e3539732d312e3532392e3230342d322e3139372e35396c2d31302e30383120362e3033322d362e383520332e3933342d31302e30383120362e303332632d2e3636382e3338372d312e3432362e35392d322e3139372e3539732d312e3532392d2e3230342d322e3139372d2e35396c2d382e3031332d342e37323161342e353220342e35322030203020312d312e3538392d312e363136632d2e3338342d2e3636352d2e3539342d312e3431382d2e3630382d322e313837762d392e3331632d2e3031332d2e3737352e3138352d312e3533382e3537322d322e32303861342e323520342e323520302030203120312e3632352d312e3539356c372e3838342d342e3539632e3636382d2e33383720312e3432362d2e353920322e3139372d2e353973312e3532392e32303420322e3139372e35396c372e38383420342e353961342e353220342e353220302030203120312e35383920312e363136632e3338342e3636352e35393420312e3431382e36303820322e31383776362e3033326c362e38352d342e303635762d362e303332632e3031332d2e3737352d2e3138352d312e3533382d2e3537322d322e32303861342e323520342e32352030203020302d312e3632352d312e3539354c34312e3435362032342e3539632d2e3636382d2e3338372d312e3432362d2e35392d322e3139372d2e3539732d312e3532392e3230342d322e3139372e35396c2d31342e38363420382e36353561342e323520342e32352030203020302d312e36323520312e353935632d2e3338372e36372d2e35383520312e3433342d2e35373220322e3230387631372e343431632d2e3031332e3737352e31383520312e3533382e35373220322e32303861342e323520342e323520302030203020312e36323520312e3539356c31342e38363420382e363535632e3636382e33383720312e3432362e353920322e3139372e353973312e3532392d2e32303420322e3139372d2e35396c31302e3038312d352e39303120362e38352d342e3036352031302e3038312d352e393031632e3636382d2e33383720312e3432362d2e353920322e3139372d2e353973312e3532392e32303420322e3139372e35396c372e38383420342e353961342e353220342e353220302030203120312e35383920312e363136632e3338342e3636352e35393420312e3431382e36303820322e31383776392e333131632e3031332e3737352d2e31383520312e3533382d2e35373220322e32303861342e323520342e32352030203020312d312e36323520312e3539356c2d372e38383420342e373231632d2e3636382e3338372d312e3432362e35392d322e3139372e3539732d312e3532392d2e3230342d322e3139372d2e35396c2d372e3838342d342e353961342e353220342e35322030203020312d312e3538392d312e363136632d2e3338352d2e3636352d2e3539342d312e3431382d2e3630382d322e313837762d362e3033326c2d362e383520342e30363576362e303332632d2e3031332e3737352e31383520312e3533382e35373220322e32303861342e323520342e323520302030203020312e36323520312e3539356c31342e38363420382e363535632e3636382e33383720312e3432362e353920322e3139372e353973312e3532392d2e32303420322e3139372d2e35396c31342e3836342d382e363535632e3635372d2e33393420312e3230342d2e393520312e3538392d312e363136732e3539342d312e3431382e3630392d322e3138375635352e353338632e3031332d2e3737352d2e3138352d312e3533382d2e3537322d322e32303861342e323520342e32352030203020302d312e3632352d312e3539356c2d31342e3939332d382e3738367a222066696c6c3d2223666666222f3e3c646566733e3c6c696e6561724772616469656e742069643d2242222078313d2230222079313d2230222078323d22323730222079323d2232373022206772616469656e74556e6974733d227573657253706163654f6e557365223e3c73746f702073746f702d636f6c6f723d2223636235656565222f3e3c73746f70206f66667365743d2231222073746f702d636f6c6f723d2223306364376534222073746f702d6f7061636974793d222e3939222f3e3c2f6c696e6561724772616469656e743e3c2f646566733e3c7465787420783d2233322e352220793d223233312220666f6e742d73697a653d223237222066696c6c3d2223666666222066696c7465723d2275726c282341292220666f6e742d66616d696c793d22506c7573204a616b617274612053616e732c44656a6156752053616e732c4e6f746f20436f6c6f7220456d6f6a692c4170706c6520436f6c6f7220456d6f6a692c73616e732d73657269662220666f6e742d7765696768743d22626f6c64223e",
  "linkReferences": {},
  "deployedLinkReferences": {}
}